{"abi":[{"type":"constructor","inputs":[],"stateMutability":"nonpayable"},{"type":"function","name":"FEE_PERCENTAGE","inputs":[],"outputs":[{"name":"","type":"uint256","internalType":"uint256"}],"stateMutability":"view"},{"type":"function","name":"TIMEOUT_PERIOD","inputs":[],"outputs":[{"name":"","type":"uint256","internalType":"uint256"}],"stateMutability":"view"},{"type":"function","name":"bets","inputs":[{"name":"","type":"uint256","internalType":"uint256"}],"outputs":[{"name":"creator","type":"address","internalType":"address"},{"name":"opponent","type":"address","internalType":"address"},{"name":"stake","type":"uint256","internalType":"uint256"},{"name":"description","type":"string","internalType":"string"},{"name":"createdAt","type":"uint256","internalType":"uint256"},{"name":"accepted","type":"bool","internalType":"bool"},{"name":"resolved","type":"bool","internalType":"bool"},{"name":"winner","type":"address","internalType":"address"},{"name":"resolver","type":"address","internalType":"address"}],"stateMutability":"view"},{"type":"function","name":"createBet","inputs":[{"name":"description","type":"string","internalType":"string"},{"name":"creator","type":"address","internalType":"address"},{"name":"opponent","type":"address","internalType":"address"},{"name":"resolver","type":"address","internalType":"address"}],"outputs":[{"name":"betId","type":"uint256","internalType":"uint256"}],"stateMutability":"payable"},{"type":"function","name":"feeCollector","inputs":[],"outputs":[{"name":"","type":"address","internalType":"address"}],"stateMutability":"view"},{"type":"function","name":"getBet","inputs":[{"name":"betId","type":"uint256","internalType":"uint256"}],"outputs":[{"name":"","type":"tuple","internalType":"struct IBetEscrow.Bet","components":[{"name":"creator","type":"address","internalType":"address"},{"name":"opponent","type":"address","internalType":"address"},{"name":"stake","type":"uint256","internalType":"uint256"},{"name":"description","type":"string","internalType":"string"},{"name":"createdAt","type":"uint256","internalType":"uint256"},{"name":"accepted","type":"bool","internalType":"bool"},{"name":"resolved","type":"bool","internalType":"bool"},{"name":"winner","type":"address","internalType":"address"},{"name":"resolver","type":"address","internalType":"address"}]}],"stateMutability":"view"},{"type":"function","name":"getContractBalance","inputs":[],"outputs":[{"name":"","type":"uint256","internalType":"uint256"}],"stateMutability":"view"},{"type":"function","name":"getTotalBets","inputs":[],"outputs":[{"name":"","type":"uint256","internalType":"uint256"}],"stateMutability":"view"},{"type":"function","name":"resolveBet","inputs":[{"name":"betId","type":"uint256","internalType":"uint256"},{"name":"winner","type":"address","internalType":"address"}],"outputs":[],"stateMutability":"nonpayable"},{"type":"function","name":"resolveByMutualAgreement","inputs":[{"name":"betId","type":"uint256","internalType":"uint256"},{"name":"winner","type":"address","internalType":"address"},{"name":"creatorSignature","type":"bytes","internalType":"bytes"},{"name":"opponentSignature","type":"bytes","internalType":"bytes"}],"outputs":[],"stateMutability":"nonpayable"},{"type":"function","name":"setFeeCollector","inputs":[{"name":"newFeeCollector","type":"address","internalType":"address"}],"outputs":[],"stateMutability":"nonpayable"},{"type":"function","name":"withdrawFees","inputs":[{"name":"amount","type":"uint256","internalType":"uint256"}],"outputs":[],"stateMutability":"nonpayable"},{"type":"event","name":"BetCreated","inputs":[{"name":"betId","type":"uint256","indexed":true,"internalType":"uint256"},{"name":"creator","type":"address","indexed":true,"internalType":"address"},{"name":"opponent","type":"address","indexed":true,"internalType":"address"},{"name":"stake","type":"uint256","indexed":false,"internalType":"uint256"},{"name":"description","type":"string","indexed":false,"internalType":"string"},{"name":"resolver","type":"address","indexed":false,"internalType":"address"}],"anonymous":false},{"type":"event","name":"BetResolved","inputs":[{"name":"betId","type":"uint256","indexed":true,"internalType":"uint256"},{"name":"winner","type":"address","indexed":true,"internalType":"address"},{"name":"resolver","type":"address","indexed":true,"internalType":"address"}],"anonymous":false}],"bytecode":{"object":"0x60808060405234602757600180546001600160a01b031916331790556111b1908161002c8239f35b5f80fdfe6080806040526004361015610012575f80fd5b5f3560e01c9081620b46f814610cf457508063061e494f14610b6c57806322af00fa14610aa55780635e318e07146109855780635f467b1a146106585780636f9fb98a1461063d57806381b3b29f1461045b57806392dc9c9f146101eb578063a3cb679d146101cf578063a42dce80146100e8578063c415b95c146100c05763f5fce2451461009f575f80fd5b346100bc575f3660031901126100bc57602060405162093a808152f35b5f80fd5b346100bc575f3660031901126100bc576001546040516001600160a01b039091168152602090f35b346100bc5760203660031901126100bc576004356001600160a01b038116908190036100bc576001546001600160a01b038116330361017c578115610137576001600160a01b03191617600155005b60405162461bcd60e51b815260206004820152601d60248201527f496e76616c69642066656520636f6c6c6563746f7220616464726573730000006044820152606490fd5b60405162461bcd60e51b815260206004820152602560248201527f4f6e6c792063757272656e742066656520636f6c6c6563746f722063616e206360448201526468616e676560d81b6064820152608490fd5b346100bc575f3660031901126100bc5760205f54604051908152f35b346100bc5760803660031901126100bc57600435610207610e76565b9060443567ffffffffffffffff81116100bc57610228903690600401610e48565b919060643567ffffffffffffffff81116100bc5761024a903690600401610e48565b90936102585f548510610e8c565b835f52600260205261027360ff600560405f20015416610f0c565b835f52600260205261029260ff600560405f20015460081c1615610f4f565b835f52600260205260405f2091604051956102f26020880187815260018060a01b038a16986001600160601b03198b60601b166040820152603481526102d9605482610d86565b51902085546001600160a01b0316969094908588611078565b928361043b575b5050501561040157600291841480156103eb575b61031690610f92565b600581018054610100600160b01b031916601087901b62010000600160b01b0316176101001790550154928360011b93808504600214901517156103d757838004600114841517156103d7575f808080876103b1956103a183808080610382819f606490048098610fdd565b6001549097906001600160a01b03165af161039b610ecd565b50610fea565b5af16103ab610ecd565b5061102c565b7fb8c531c8f9dbf711f6a081b14e807cd32c48582974be115e655024d0cb6cacd78380a4005b634e487b7160e01b5f52601160045260245ffd5b5060018101546001600160a01b0316841461030d565b60405162461bcd60e51b8152602060048201526012602482015271496e76616c6964207369676e61747572657360701b6044820152606490fd5b600185015461045394506001600160a01b0316611078565b8680806102f9565b346100bc5760403660031901126100bc57600435610477610e76565b6104835f548310610e8c565b815f52600260205261049e60ff600560405f20015416610f0c565b815f5260026020526104bd60ff600560405f20015460081c1615610f4f565b5f82815260026020526040902060068101546001600160a01b031680151592919083610633575b5080546001600160a01b031692338414801561061d575b8115610615575b50156105d0576001600160a01b0382169260029190841480156105ba575b61052990610f92565b600581018054610100600160b01b031916601085901b62010000600160b01b03161761010017905501548060011b90808204600214901517156103d757808004600114811517156103d7575f808083610592956103a1838080806103826064829c048098610fdd565b33917fb8c531c8f9dbf711f6a081b14e807cd32c48582974be115e655024d0cb6cacd75f80a4005b5060018101546001600160a01b03168414610520565b60405162461bcd60e51b815260206004820152601b60248201527f556e617574686f72697a656420746f207265736f6c76652062657400000000006044820152606490fd5b905085610502565b5060018201546001600160a01b031633146104fb565b33149250846104e4565b346100bc575f3660031901126100bc57602047604051908152f35b60803660031901126100bc5760043567ffffffffffffffff81116100bc57610684903690600401610e48565b9061068d610e76565b916044356001600160a01b03811691908290036100bc576064356001600160a01b03811693908490036100bc5734156109405782156108fb575f54935f1985146103d757600185015f55845f52600260205260405f2060018060a01b0387166001600160601b0360a01b82541617815560018101856001600160601b0360a01b8254161790553460028201556003810167ffffffffffffffff85116108e7576107368154610d31565b601f81116108a2575b5096869285926020995f601f861160011461081157608094927fad6843c24926ae4c37410d353c5adeb7d4bd271cfb76641df41ddca73f0bc08f97989492876005935f91610806575b508860011b905f198a60031b1c19161790555b4260048201556006810180546001600160a01b0319168417905501805460ff1916600117905560405134815260608c82018190528101869052948593858501375f83890185015260408301526001600160a01b031695601f01601f19168101030190a4604051908152f35b90508601358f610788565b601f19861690825f528c5f20915f5b8181106108855750926005926080979592897fad6843c24926ae4c37410d353c5adeb7d4bd271cfb76641df41ddca73f0bc08f9b9c98961061086c575b5050600188811b01905561079b565b8701355f1960038b901b60f8161c191690558e8061085d565b8a83013584558d99508b9850600190930192918e01918e01610820565b815f5260205f20601f870160051c810191602088106108dd575b601f0160051c01905b8181106108d2575061073f565b5f81556001016108c5565b90915081906108bc565b634e487b7160e01b5f52604160045260245ffd5b60405162461bcd60e51b815260206004820152601860248201527f496e76616c6964206f70706f6e656e74206164647265737300000000000000006044820152606490fd5b60405162461bcd60e51b815260206004820152601c60248201527f5374616b65206d7573742062652067726561746572207468616e2030000000006044820152606490fd5b346100bc5760203660031901126100bc57600154600435906001600160a01b031633819003610a605781151580610a56575b15610a11575f80809381935af16109cc610ecd565b50156109d457005b60405162461bcd60e51b8152602060048201526015602482015274119959481dda5d1a191c985dd85b0819985a5b1959605a1b6044820152606490fd5b60405162461bcd60e51b815260206004820152601960248201527f496e76616c6964207769746864726177616c20616d6f756e74000000000000006044820152606490fd5b50478211156109b7565b60405162461bcd60e51b815260206004820152601f60248201527f4f6e6c792066656520636f6c6c6563746f722063616e207769746864726177006044820152606490fd5b346100bc5760203660031901126100bc576004355f52600260205260405f2060018060a01b0381541660018060a01b03600183015416916002810154610aed60038301610da8565b91610b30600482015493600583015492600660018060a01b0391015416936040519788978852602088015260408701526101206060870152610120860190610d0d565b608085019390935260ff818116151560a0860152600882901c16151560c085015260101c6001600160a01b031660e08401526101008301520390f35b346100bc5760203660031901126100bc576004355f610100604051610b9081610d69565b8281528260208201528260408201526060808201528260808201528260a08201528260c08201528260e08201520152610bcb5f548210610e8c565b5f52600260205260405f20604051610be281610d69565b81546001600160a01b03908116825260018301541660208201908152600283015460408301908152909290610c1960038301610da8565b6060840190815260048301549260808501938452600581015491610cbe60a087019160ff85161515835260c088019360ff8660081c161515855260e089019560018060a01b039060101c168652600660018060a01b0391015416956101008901968752604051998a9960208b5260018060a01b0390511660208b015260018060a01b0390511660408a0152516060890152516101206080890152610140880190610d0d565b945160a087015251151560c086015251151560e0850152516001600160a01b039081166101008501529051166101208301520390f35b346100bc575f3660031901126100bc5780600160209252f35b805180835260209291819084018484015e5f828201840152601f01601f1916010190565b90600182811c92168015610d5f575b6020831014610d4b57565b634e487b7160e01b5f52602260045260245ffd5b91607f1691610d40565b610120810190811067ffffffffffffffff8211176108e757604052565b90601f8019910116810190811067ffffffffffffffff8211176108e757604052565b9060405191825f825492610dbb84610d31565b8084529360018116908115610e265750600114610de2575b50610de092500383610d86565b565b90505f9291925260205f20905f915b818310610e0a575050906020610de0928201015f610dd3565b6020919350806001915483858901015201910190918492610df1565b905060209250610de094915060ff191682840152151560051b8201015f610dd3565b9181601f840112156100bc5782359167ffffffffffffffff83116100bc57602083818601950101116100bc57565b602435906001600160a01b03821682036100bc57565b15610e9357565b60405162461bcd60e51b815260206004820152601260248201527110995d08191bd95cc81b9bdd08195e1a5cdd60721b6044820152606490fd5b3d15610f07573d9067ffffffffffffffff82116108e75760405191610efc601f8201601f191660200184610d86565b82523d5f602084013e565b606090565b15610f1357565b60405162461bcd60e51b815260206004820152601460248201527310995d081b9bdd081e595d081858d8d95c1d195960621b6044820152606490fd5b15610f5657565b60405162461bcd60e51b815260206004820152601460248201527310995d08185b1c9958591e481c995cdbdb1d995960621b6044820152606490fd5b15610f9957565b606460405162461bcd60e51b815260206004820152602060248201527f57696e6e6572206d757374206265206120626574207061727469636970616e746044820152fd5b919082039182116103d757565b15610ff157565b60405162461bcd60e51b8152602060048201526013602482015272119959481d1c985b9cd9995c8819985a5b1959606a1b6044820152606490fd5b1561103357565b60405162461bcd60e51b815260206004820152601860248201527f57696e6e696e6773207472616e73666572206661696c656400000000000000006044820152606490fd5b92919060419060405160208101917f19457468657265756d205369676e6564204d6573736167653a0a3332000000008352603c820152603c81526110bd605c82610d86565b51902092036111365760408101355f1a601b8110611124575b602092835f9360ff6080946040519485521682840152803560408401520135606082015282805260015afa15611119575f516001600160a01b0390811691161490565b6040513d5f823e3d90fd5b601b019060ff82116103d757906110d6565b60405162461bcd60e51b815260206004820152601860248201527f496e76616c6964207369676e6174757265206c656e67746800000000000000006044820152606490fdfea264697066735822122035353faf28f85d5e2ea9392e1e4d14d76ad8655613961a8dc8f9d93fcd49bbec64736f6c634300081b0033","linkReferences":{}},"methodIdentifiers":{"FEE_PERCENTAGE()":"000b46f8","TIMEOUT_PERIOD()":"f5fce245","bets(uint256)":"22af00fa","createBet(string,address,address,address)":"5f467b1a","feeCollector()":"c415b95c","getBet(uint256)":"061e494f","getContractBalance()":"6f9fb98a","getTotalBets()":"a3cb679d","resolveBet(uint256,address)":"81b3b29f","resolveByMutualAgreement(uint256,address,bytes,bytes)":"92dc9c9f","setFeeCollector(address)":"a42dce80","withdrawFees(uint256)":"5e318e07"},"id":21}